:020000040000FA
:04000000FEEFFFF020
:020000040001F9
:10FE260012001200120001EE01F10D0EEE6AE80654
:10FE3600FDE100013FEFFFF0000EBE6E000EBF6E4B
:10FE4600000EC66E010EC76E000E0401006F000E96
:10FE5600086FCE8E1200000E096E000E0A6E000E9E
:10FE66000B6E000E0C6E000E056E000E066E000E7A
:10FE7600076E000E086E1200048E13ECFFF02EECD7
:10FE8600FFF01FECFFF015ECFFF050ECFFF014EC68
:10FE9600FFF048EFFFF0FEEFFFF0000E106E000ED1
:10FEA600116E000E126E000E136ECFAA5DEFFFF0FC
:10FEB6005FEFFFF058EFFFF0150E0F6E4B0E0E6E54
:10FEC600BE0EE82EFED70E2EFCD70F2EFAD700D088
:10FED600010E1026000E11221222132210A076EF18
:10FEE600FFF078EFFFF07BEFFFF0BE807CEFFFF0D6
:10FEF600BE9010A281EFFFF083EFFFF086EFFFF0D8
:10FF0600CE8287EFFFF0BE9210A48CEFFFF08EEF4B
:10FF1600FFF091EFFFF0BE8492EFFFF0BE9410A6C3
:10FF260097EFFFF099EFFFF09CEFFFF0BE869DEF95
:10FF3600FFF0BE9610A8A2EFFFF0A4EFFFF0A7EF28
:10FF4600FFF0BE88A8EFFFF0BE9810AAADEFFFF055
:10FF5600AFEFFFF0B2EFFFF0BE8AB3EFFFF0BE9A4D
:10FF6600010E1026000E11221222132210A0BEEF3F
:10FF7600FFF0C0EFFFF0C3EFFFF0BE80C4EFFFF06D
:10FF8600BE9010A2C9EFFFF0CBEFFFF0CEEFFFF06F
:10FF9600CE82CFEFFFF0BE9210A4D4EFFFF0D6EFE3
:10FFA600FFF0D9EFFFF0BE84DAEFFFF0BE9410A6A3
:10FFB600DFEFFFF0E1EFFFF0E4EFFFF0BE86E5EFE5
:10FFC600FFF0BE9610A8EAEFFFF0ECEFFFF0EFEFC0
:10FFD600FFF0BE88F0EFFFF0BE9810AAF5EFFFF035
:10FFE600F7EFFFF0FAEFFFF0BE8A58EFFFF0BE9A88
:0AFFF60058EFFFF0120016EFFFF0C5
:020000040020DA
:10000000FF0FFF0FFF0FFF0FFF0FFF0FFF0FFF0F80
:10001000FF0FFF0FFF0FFF0FFF0FFF0FFF0FFF0F70
:020000040030CA
:0A0000008CFEFFFC9FFFFFFFFFFFD7
:00000001FF
