:020000040000FA
:04000000FEEFFFF020
:020000040001F9
:10FF5800120012001200000EBE6E000EC66E000ED9
:10FF68000401006F120001EE01F10D0EEE6AE806C1
:10FF7800FDE10001D1EFFFF0000E096E000E0A6EE0
:10FF8800000E0B6E000E0C6E000E056E000E066E57
:10FF9800000E076E000E086E1200048EACECFFF027
:10FFA800C0ECFFF0AFECFFF0AEECFFF0E2ECFFF0DE
:10FFB800ADECFFF0DAEFFFF0FEEFFFF0000EBE6EE3
:10FFC8003F0EBE64EAEFFFF0ECEFFFF0EEEFFFF05C
:10FFD800FDEFFFF0290E0F6E960E0E6E7F0EE82EC7
:10FFE800FED70E2EFCD70F2EFAD700F0BE2AE4EF6C
:08FFF800FFF01200B7EFFFF06B
:020000040020DA
:10000000FF0FFF0FFF0FFF0FFF0FFF0FFF0FFF0F80
:10001000FF0FFF0FFF0FFF0FFF0FFF0FFF0FFF0F70
:020000040030CA
:0A0000008CFEFFFC9FFFFFFFFFFFD7
:00000001FF
