:020000040000FA
:04000000FEEFFFF020
:020000040001F9
:10FEC60012001200120001EE01F1110EEE6AE806B0
:10FED600FDE100018FEFFFF0000EBE6E000EBF6E5B
:10FEE600000EC66E010EC76E000E0401006F000EF6
:10FEF600086FCE8E1200000E0D6E000E0E6E000EF6
:10FF06000F6E000E106E000E096E000E0A6E000EC9
:10FF16000B6E000E0C6E1200088E63ECFFF07EEC8A
:10FF2600FFF06FECFFF065ECFFF0A0ECFFF064EC87
:10FF3600FFF098EFFFF0FEEFFFF0CFAAA5EFFFF07E
:10FF4600A7EFFFF0A0EFFFF0010E0126000E022240
:10FF560003220422150E136E4B0E126EBE0EE82EF1
:10FF6600FED7122EFCD7132EFAD700D001A0BEEF73
:10FF7600FFF0C0EFFFF0C3EFFFF0BE80C4EFFFF06D
:10FF8600BE9001A2C9EFFFF0CBEFFFF0CEEFFFF07E
:10FF9600BE82CFEFFFF0BE9201A4D4EFFFF0D6EF02
:10FFA600FFF0D9EFFFF0BE84DAEFFFF0BE9401A6B2
:10FFB600DFEFFFF0E1EFFFF0E4EFFFF0BE86E5EFE5
:10FFC600FFF0BE9601A8EAEFFFF0ECEFFFF0EFEFCF
:10FFD600FFF0BE88F0EFFFF0BE9801AAF5EFFFF044
:10FFE600F7EFFFF0FAEFFFF0BE8AA0EFFFF0BE9A40
:0AFFF600A0EFFFF0120066EFFFF02D
:020000040020DA
:10000000FF0FFF0FFF0FFF0FFF0FFF0FFF0FFF0F80
:10001000FF0FFF0FFF0FFF0FFF0FFF0FFF0FFF0F70
:020000040030CA
:0A0000008CFEFFFC9FFFFFFFFFFFD7
:00000001FF
