:020000040000FA
:04000000FEEFFFF020
:020000040001F9
:10FF720012001200BE90BE92BE94BE96BE98BE9A69
:10FF82001200800EBE6E000E03011A6F440E1B6F2C
:10FF92001200000EBE6E000EC66E000E0401006F4F
:10FFA200CE8E120001EE01F10D0EEE6AE806FDE1C1
:10FFB2000001EDEFFFF0000E096E000E0A6E000E5A
:10FFC2000B6E000E0C6E000E056E000E066E000E1D
:10FFD200076E000E086E1200048EB9ECFFF0DCEC26
:10FFE200FFF0CAECFFF0C2ECFFF0BBECFFF0BAECA2
:0EFFF200FFF0F6EFFFF0FEEFFFF0D3EFFFF0B1
:020000040020DA
:10000000FF0FFF0FFF0FFF0FFF0FFF0FFF0FFF0F80
:10001000FF0FFF0FFF0FFF0FFF0FFF0FFF0FFF0F70
:020000040030CA
:0A0000008CFEFFFC9FFFFFFFFFFFD7
:00000001FF
