:020000040000FA
:04000000FEEFFFF020
:020000040001F9
:10FF0D00011200000EBE6E000EC66E000E04010042
:10FF1D006F000E00017F6F1200800EBE6E900E03FB
:10FF2D00011A6F540E1B6F010E00017D6F1200043C
:10FF3D008E87ECFFF0ADECFFF088ECFFF093ECFF5B
:10FF4D00F0D1ECFFF0A7EFFFF0FEEFFFF0000E0990
:10FF5D006E000E0A6E000E0B6E000E0C6E000E057E
:10FF6D006E000E066E000E076E000E086E12000D6E
:10FF7D000EF66EFF0EF76E010EF86E09006100D4DD
:10FF8D00F30EF501EE01F10D0EEE6AE806FDE1004E
:10FF9D00019EEFFFF00E04D8A4D7EFFFF0D9EFFFCD
:10FFAD00F0E7EFFFF000017D29D8B4E0EFFFF0E2BC
:10FFBD00EFFFF0E5EFFFF07D2BE7EFFFF0000E0E0A
:10FFCD006E0E50D8A4EDEFFFF0EFEFFFF0FDEFFF59
:10FFDD00F000017D51D8B4F6EFFFF0F8EFFFF0FB24
:10FFED00EFFFF07D07FDEFFFF0010E0E6E1200BE6C
:03FFFD00EFFFF023
:020000040020DA
:10000000FF0FFF0FFF0FFF0FFF0FFF0FFF0FFF0F80
:10001000FF0FFF0FFF0FFF0FFF0FFF0FFF0FFF0F70
:020000040030CA
:0A0000008CFEFFFC9FFFFFFFFFFFD7
:00000001FF
