:020000040000FA
:04000000FEEFFFF020
:020000040001F9
:10FED20012001200120001EE01F10D0EEE6AE806A8
:10FEE200FDE1000195EFFFF0000EBE6E000EBF6E49
:10FEF200000EC66E010EC76E000E0401006F000EEA
:10FF0200086FCE8E1200000E096E000E0A6E000EF1
:10FF12000B6E000E0C6E000E056E000E066E000ECD
:10FF2200076E000E086E1200048E69ECFFF084EC7E
:10FF3200FFF075ECFFF06BECFFF0A6ECFFF06AEC63
:10FF4200FFF09EEFFFF0FEEFFFF0000E0E6E000ED0
:10FF52000F6E000E106E000E116ECFAAB3EFFFF0FF
:10FF6200B5EFFFF0FDEFFFF0010E0E26000E0F229F
:10FF7200102211220EA0C0EFFFF0C2EFFFF0C5EF7A
:10FF8200FFF0BE80C6EFFFF0BE900EA2CBEFFFF0F7
:10FF9200CDEFFFF0D0EFFFF0CE82D1EFFFF0BE92B7
:10FFA2000EA4D6EFFFF0D8EFFFF0DBEFFFF0BE8438
:10FFB200DCEFFFF0BE940EA6E1EFFFF0E3EFFFF0FF
:10FFC200E6EFFFF0BE86E7EFFFF0BE960EA8ECEF7D
:10FFD200FFF0EEEFFFF0F1EFFFF0BE88F2EFFFF07F
:10FFE200BE980EAAF7EFFFF0F9EFFFF0FCEFFFF07B
:0EFFF200BE8AFDEFFFF0BE9A12006CEFFFF02A
:020000040020DA
:10000000FF0FFF0FFF0FFF0FFF0FFF0FFF0FFF0F80
:10001000FF0FFF0FFF0FFF0FFF0FFF0FFF0FFF0F70
:020000040030CA
:0A0000008CFEFFFC9FFFFFFFFFFFD7
:00000001FF
