:020000040000FA
:04000000FEEFFFF020
:020000040001F9
:10FEDA00120012001200000EBE6E000EC66E000E58
:10FEEA000401006FCE8E120001EE01F10D0EEE6AD2
:10FEFA00E806FDE1000193EFFFF0000E096E000E27
:10FF0A000A6E000E0B6E000E0C6E000E056E000ED1
:10FF1A00066E000E076E000E086E1200048E6DEC5F
:10FF2A00FFF082ECFFF070ECFFF06FECFFF0A4EC56
:10FF3A00FFF06EECFFF09CEFFFF0FEEFFFF0000E1B
:10FF4A00146E14A0ABEFFFF0ADEFFFF0B0EFFFF0CF
:10FF5A00BE80B1EFFFF0BE9014A2B6EFFFF0B8EF8B
:10FF6A00FFF0BBEFFFF0CE82BCEFFFF0BE9214A40D
:10FF7A00C1EFFFF0C3EFFFF0C6EFFFF0BE84C7EF9B
:10FF8A00FFF0BE9414A6CCEFFFF0CEEFFFF0D1EF56
:10FF9A00FFF0BE86D2EFFFF0BE9614A8D7EFFFF0AF
:10FFAA00D9EFFFF0DCEFFFF0BE88DDEFFFF0BE987F
:10FFBA0014AAE2EFFFF0E4EFFFF0E7EFFFF0BE8AEA
:10FFCA00E8EFFFF0BE9A150E0F6E4B0E0E6EBE0EC8
:10FFDA00E82EFED70E2EFCD70F2EFAD700D0142A01
:10FFEA003F0E1464FBEFFFF0FDEFFFF0A6EFFFF00A
:06FFFA00120079EFFFF098
:020000040020DA
:10000000FF0FFF0FFF0FFF0FFF0FFF0FFF0FFF0F80
:10001000FF0FFF0FFF0FFF0FFF0FFF0FFF0FFF0F70
:020000040030CA
:0A0000008CFEFFFC9FFFFFFFFFFFD7
:00000001FF
